:020000040000FA
:100000000C9487000C94AF000C94AF000C94E00F9C
:100010000C94E00F0C94E00F0C94AF000C94AF0024
:100020000C94AF000C94AF000C94AF000C94AF0094
:100030000C94AF000C94AF000C94AF000C94AF0084
:100040000C94960F0C94AF000C94640F0C943E0F1C
:100050000C94AF000C94AF000C94AF000C94AF0064
:100060000C94AF000C94AF000000803FCDCCCC3D91
:100070006F12833A95BFD6337D1D9026B3CE010C07
:1000800000000000240027002A00000000080002F1
:100090000100000304070000000000000000000051
:1000A00020410000C84200401C4620BCBE4CCA1B78
:1000B0000E5AAEC59D74CDCCCC3D0AD7233C17B7A4
:1000C000D13877CC2B329595E6241FB14F0A00002A
:1000D0000000230026002900000000002500280061
:1000E0002B000404040404040404020202020202B9
:1000F00003030303030301020408102040800102EC
:10010000040810200102040810205810B212112413
:100110001FBECFEFD8E0DEBFCDBF23E0ACEEB1E035
:1001200001C01D92A030B207E1F711E0A0E0B1E0FC
:10013000E6EFFEE202C005900D92AC3EB107D9F7A2
:1001400010E0C6E8D0E004C02197FE010E946D15C2
:10015000C538D107C9F70E9411110C946E170C9481
:10016000000008950895AF92BF92CF92DF92EF9270
:10017000FF920F931F93CF93DF936C017B018B0151
:10018000040F151FEB015E01AE18BF08C017D107A1
:1001900059F06991D601ED91FC910190F081E02D2B
:1001A000C6010995892B79F7C501DF91CF911F9180
:1001B0000F91FF90EF90DF90CF90BF90AF90089598
:1001C000FC01538D448D252F30E0842F90E0821B5D
:1001D000930B541710F0CF96089501970895FC01E2
:1001E000918D828D981761F0A28DAE0FBF2FB11D3A
:1001F0005D968C91928D9F5F9F73928F90E0089592
:100200008FEF9FEF0895FC01918D828D981731F04B
:10021000828DE80FF11D858D90E008958FEF9FEF9F
:100220000895FC01918D228D892F90E0805C9F4F75
:10023000821B91098F73992708958AE392E00E94A7
:10024000110121E0892B09F420E0822F089580E03C
:1002500090E0892B29F00E941D0181110C9400006F
:100260000895FC01A48DA80FB92FB11DA35ABF4F4B
:100270002C91848D90E001968F739927848FA689A5
:10028000B7892C93A089B1898C91837080648C93F9
:10029000938D848D981306C00288F389E02D8081A8
:1002A0008F7D80830895EF92FF920F931F93CF93DA
:1002B000DF93EC0181E0888F9B8D8C8D98131AC0A1
:1002C000E889F989808185FF15C09FB7F894EE8988
:1002D000FF896083E889F9898081837080648083E5
:1002E0009FBF81E090E0DF91CF911F910F91FF9030
:1002F000EF900895F62E0B8D10E00F5F1F4F0F73D8
:100300001127E02E8C8D8E110CC00FB607FCFACF92
:10031000E889F989808185FFF5CFCE010E943101FE
:10032000F1CFEB8DEC0FFD2FF11DE35AFF4FF08263
:100330009FB7F8940B8FEA89FB8980818062CFCFC9
:10034000CF93DF93EC01888D8823B9F0AA89BB890C
:10035000E889F9898C9185FD03C0808186FD0DC0F7
:100360000FB607FCF7CF8C9185FFF2CF808185FF18
:10037000EDCFCE010E943101E9CFDF91CF910895F9
:1003800090E0FC01E657FF4F2491FC01EA50FF4F3B
:100390003491FC01EE51FF4FE491EE23C9F022238A
:1003A00039F0233001F1A8F4213019F1223029F17C
:1003B000F0E0EE0FFF1FE852FF4FA591B4918FB709
:1003C000F894EC91611126C030953E233C938FBF89
:1003D00008952730A9F02830C9F0243049F78091DA
:1003E00080008F7D03C0809180008F778093800094
:1003F000DFCF84B58F7784BDDBCF84B58F7DFBCF16
:100400008091B0008F778093B000D2CF8091B00000
:100410008F7DF9CF3E2BDACFCF93DF9390E0FC01B5
:10042000EA50FF4F24918E519F4FFC018491882305
:10043000D1F090E0880F991FFC01E058FF4FA59183
:10044000B491FC01E852FF4FC591D49161110EC0E7
:100450009FB7F8948C91E22FE0958E238C9328819E
:10046000E223E8839FBFDF91CF9108958FB7F8947F
:10047000EC91E22BEC938FBFF6CF3FB7F8948091CD
:100480002D0290912E02A0912F02B091300226B53C
:10049000A89B05C02F3F19F00196A11DB11D3FBFBC
:1004A000BA2FA92F982F8827BC01CD01620F711D8B
:1004B000811D911D42E0660F771F881F991F4A9585
:1004C000D1F708958F929F92AF92BF92CF92DF9211
:1004D000EF92FF924B015C010E943D026B017C0197
:1004E0000E943D026C197D098E099F09683E734088
:1004F00081059105A8F321E0821A9108A108B108AD
:1005000088EEC80E83E0D81EE11CF11C8114910412
:10051000A104B10429F7FF90EF90DF90CF90BF9036
:10052000AF909F908F9008952091330230913402C4
:100530002817390771F4909131028091320298178F
:1005400041F0E0913102F0E0E451FE4F808190E013
:1005500008958FEF9FEF08950895EF92FF920F9304
:100560001F93CF93DF93DC015C96ED90FC905D9739
:10057000E114F10479F481E090E013969C938E935A
:10058000129790E080E0DF91CF911F910F91FF9043
:10059000EF9008955196ED91FC91529750968C9161
:1005A0005097982F90950FB75E962C915E97122FCB
:1005B000127021FD6095F8942081112319F1282BE8
:1005C0002083E7012197F1F728E0462F50E03081A2
:1005D00060FF1AC0382B3083E7012197F1F7BA0189
:1005E00075956795215089F7112381F080818923C2
:1005F00080830FBF5C968D919C910197F1F781E00C
:1006000090E0C1CF2923DCCF3923E5CF9081892B1E
:10061000EFCF20913302309134022817390771F45B
:10062000809132022091310290E0805C9F4F821BCA
:10063000910960E470E00E943715089590E080E031
:100640000895209133023091340228173907B9F404
:100650009091310280913202981789F0E091310235
:10066000F0E0E451FE4F80812091310230E02F5FB5
:100670003F4F2F7333272093310290E008958FEF7F
:100680009FEF08952FB7F89480913602909137022A
:10069000A0913802B09139022FBF8093DF0290936E
:1006A000E002A093E102B093E20287ED92E00E94A3
:1006B000210397FF26C02FB7F894809136029091BE
:1006C0003702A0913802B09139022FBF4091DF026A
:1006D0005091E0026091E1027091E202841B950B5F
:1006E000A60BB70B4091DB025091DC026091DD025A
:1006F0007091DE0284179507A607B707B0F28FEF57
:100700009FEF089590E080E0089580339CF08A3355
:1007100024F08F3524F08B3724F481E00895813460
:100720004CF08B35D4F393ED980F81E09230B0F319
:1007300080E008958B32B9F7F0CFFC0186858111F6
:1007400014C0A185B285838594852FEF3FEFA8174C
:10075000B90730F4CD010196928781872C9130E062
:1007600037FD20E0258781E08687858508951F93E2
:10077000CF93DF93EC01162F0E949D03811306C0D7
:100780001E8681E0DF91CF911F91089580E0FACF1E
:10079000CF93DF93EC01CE010E949D038B303CF49C
:1007A00089304CF4882349F081E0888710C08D306F
:1007B00011F08032C9F71E86EECF888581110AC0FC
:1007C00081E090E0CF5ADF4F9983888380E0DF910A
:1007D000CF91089582E090E0F5CFFC018281938172
:1007E0000097C1F024813581468157812417350750
:1007F00040F0138212820190F081E02D81E0808729
:100800000895A9014F5F5F4F55834483820F931F63
:10081000FC01608308959F92AF92BF92CF92DF92C6
:10082000EF92FF920F931F93CF93DF9300D000D0EE
:100830001F92CDB7DEB78C010E949D03D82EF80120
:100840001686F12CE12C70EFC72EC8010E949D0383
:10085000F8011686D81609F4C1C0811119C0F80133
:10086000EF5AFF4F82E090E09183808380E00F9009
:100870000F900F900F900F90DF91CF911F910F91DC
:10088000FF90EF90DF90CF90BF90AF909F90089532
:100890008C3509F09EC0C8010E949D038823F9F29F
:1008A000E6E3F1E0853709F088C0F801168664E0D8
:1008B000962EB12CA12CC8010E949D03882379F2A9
:1008C00081344CF48053803148F0F801EF5AFF4FE7
:1008D00083E090E0C9CF8F7D8753F5CF54E0AA0C19
:1008E000BB1C5A95E1F7A82AF80116869A94911034
:1008F000E2CFC501985D8115944020F4750123E095
:10090000F222A3CFC5019C5D8115944008F5F3E068
:10091000BF22C701982F8827990F990F8A299B29F1
:10092000B0E0A0E01196198280389105A105B105CB
:1009300098F48A835E0123E0A20EB11CF501629156
:100940005F01662309F481CFC8010E94ED03F6CF51
:10095000C501B0E0A0E0E7CF282F2F7320682A83DD
:1009600036E0B695A795979587953A95D1F7803259
:10097000910538F4806C8B835E0184E0A80EB11C75
:10098000DDCF282F2F7320682B8326E0969587953F
:100990002A95E1F78031910538F4806E8C835E01F1
:1009A000E5E0AE0EB11CCACF80688C83CD825E01BB
:1009B000F6E0AF0EB11CC2CF32969081992309F4B4
:1009C00084CF8913F9CF8181882309F47ECFF80180
:1009D0001686682FC8010E94ED0337CF60E0C8017A
:1009E0000E94ED03F80182819381892B29F4EF5A4B
:1009F000FF4F84E090E038CF81E039CFEF92FF9253
:100A00000F931F93CF93DF93DC01ED90FC90E701F0
:100A10002A813B81E881F981E217F30780F4B9016B
:100A2000DF01EB014991BE018D010F5F1F4F5C910A
:100A3000451318C0D8014111F4CF309759F4FC0187
:100A400084819581820F931FD70113969C938E9377
:100A50001297F901CF01DF91CF911F910F91FF9074
:100A6000EF900895FD014191DF014111FBCFD4CFFB
:100A7000CF93DF93DC01EB01EC81FD818A819B81C7
:100A80000896E817F90740F481E08887F0E0E0E095
:100A9000CF01DF91CF9108953897FD83EC83309794
:100AA000B9F31296CD91DC911397209791F0CF0175
:100AB0008C1B9D0B23E0959587952A95E1F78D83F7
:100AC0001396FC93EE931297158214821782168266
:100AD000DFCF1196FC93EE93F3CF009769F0FC0102
:100AE00001900020E9F73197AF01481B590BBC0179
:100AF0008AE392E00C94B30090E080E00895FC015A
:100B000080819181009711F00C940F160895FC01DB
:100B100024813581232B39F421E0FB018081882356
:100B200049F020E007C0808191810E945E1721E09A
:100B3000892BB9F7822F08950F931F93CF93DF93DB
:100B40008B01EC012097E1F06E817F8160177107C6
:100B5000B9F00115110541F06115710529F0C801C1
:100B60000E945E17892B61F08D81882339F028E07F
:100B70008202C0011124C80FD91FE4CFD0E0C0E029
:100B8000CE01DF91CF911F910F9108954F925F9207
:100B90006F927F92BF92CF92DF92EF92FF920F936C
:100BA0001F93CF93DF93EC018B01E42E0E94C803C7
:100BB000F82E811110C0F12C8F2DDF91CF911F9154
:100BC0000F91FF90EF90DF90CF90BF907F906F904C
:100BD0005F904F900895CE010E949D03873209F4E3
:100BE00014C10CF5823209F410C1CE010E949D039C
:100BF000B82E6E01F1E1CF0ED11CE12C36018B2D08
:100C00000E948503882309F422C12FE3E21609F428
:100C10001EC11E86E394F601B1926F01CE010E94BF
:100C20009D03B82EECCF8B3509F455C08B37E9F610
:100C3000F80184818078806284831182108213821B
:100C40001282EE2009F452C01E86CE010E94C80313
:100C5000882309F4B0CF6DE7CE010E94B70381115C
:100C6000ABCFEA94E881F981828193819B838A8367
:100C70008481958122813381821B930B9F838E8394
:100C80001D821C82CE010E949D03873209F46EC032
:100C9000823209F46BC0CE010E949D03D82E0E94BF
:100CA0008503882309F45DC01E866D2DCE010E9448
:100CB000ED03CE010E949D03D82E0E948503811171
:100CC000F3CF60E0CE010E94ED038A819B81892BE6
:100CD00009F052C027C0F801848180788064848341
:100CE0001182108213821282E11007C0CF5ADF4FA7
:100CF00085E090E0998388835ECF1E86CE010E94B6
:100D0000C803882309F457CF6DE5CE010E94B703CD
:100D1000811152CFEA946F857889C8010E94380505
:100D2000009729F4CF5ADF4F84E090E0E3CF4E2DB7
:100D3000BC01CE010E94C605882309F43CCFCE0138
:100D40000E94C803882309F436CF6DE5CE010E94C6
:100D5000B703811131CF6CE2CE010E94B70381113C
:100D6000DACFCF5ADF4F83E090E0C4CFCE010E94AC
:100D70000B04882309F41FCFCE010E94C8038823E7
:100D800009F419CF6AE3CE010E94B703882349F31F
:100D90006A817B81F801808191810E949C05BC0160
:100DA000892B99F4CE010E94FE046C016F8578892D
:100DB000C8010E943805FC01892B09F4B3CF848156
:100DC00080688483D782C682BF014E2DCE010E94E7
:100DD000C605882309F4EFCECE010E94C8038823FC
:100DE00009F4E9CE6DE7CE010E94B7038111E4CE8C
:100DF0006CE2CE010E94B703882309F4B2CFCE0182
:100E00000E94C80381112ECFD6CEE881F98182815C
:100E100093819B838A838481958122813381821B84
:100E2000930B9F838E831D821C82CE010E940B0434
:100E3000F82E882309F4BFCECE010E94FE04F801EB
:100E4000248120782560248391838083B5CEFE01A0
:100E5000EE0DF11D118A8989843781F4F8018481AE
:100E600080788660848381E08083F4E0EF1609F463
:100E7000A3CECF5ADF4F82E090E03CCF863641F4DC
:100E8000F80184818078866084831082F5E0EECF5B
:100E90008E3621F424E0E212ECCF8ECE8B32D9F1E3
:100EA000F3018D32D1F5FE017296BF2C808190ED59
:100EB000980F9A3018F08E3209F053CF6F0160E02E
:100EC00070E0CB01F6012191A0ED4A2E420E39E0EF
:100ED000341528F16A3949E97407840749E1940710
:100EE00040F5AAE0B0E09B01AC010E943114512C06
:100EF000712C612CA301920120953095409550955D
:100F00002617370748075907A0F0640D751D861D81
:100F1000971D6F01D7CFFE017296B12CC7CF21115B
:100F200008C0BB2071F161307105810550E895075B
:100F3000A0F0E12CEAE04E2E512C612C712C6115B1
:100F40007105F0E88F07910530F1A30192010E942D
:100F50004B15CA01B901E394F2CFF801248120783E
:100F60002A6024839B01AC0188279927DC01821B1E
:100F7000930BA40BB50B80839183A283B383FB2CCB
:100F80001BCEF8012481207828602483608371833C
:100F90008283938311CED601F60121916F0130ED4A
:100FA000320F3A3010F4E394F6CF2E32F1F4FD0113
:100FB0003196DF0131962C9150EDD52ED20E29E0DD
:100FC0002D1598F06C3C3CEC73073CE083079105D1
:100FD00080F7AAE0B0E09B01AC010E9431146D0DD6
:100FE000711D811D911DEA94E4CF2C912F7D253434
:100FF00009F08CC011962C9111972D32D9F51296CB
:101000007F2CFD0130E020E0CE2C0E2C000CDD0802
:101010004AE0542EDF01619040ED460D4A3008F061
:1010200043C0529EA001539E500D1124262D660CE4
:10103000330B20533109240F351FA9014C0D5D1DC1
:10104000473251053CF3F80184817720D1F040E02C
:1010500050E060E070E8B11003C040E050E0BA0139
:1010600080788C60F801848340835183628373832A
:10107000F72CA2CD2B3219F01196712CC2CF1296FB
:10108000FCCF40E050E060E87FEFB11004C040E0EA
:1010900050E060E87FE780788C60F80184834083CB
:1010A00051836283738388CD772019F03195219520
:1010B00031094C91411155CEE901CE0DD11DE7FC0E
:1010C000DA950E9412131C161D061CF5E12CC0FFB8
:1010D0000CC024E0E29EF0011124E256FF4F25915E
:1010E0003591459154910E947313D595C795E3941A
:1010F000209769F7B1109058F801248120782C606E
:101100002483608371838283938356CD30E020E013
:10111000D0CFD195C195D109E12C209759F3C0FFCB
:101120000CC044E0E49EF0011124EA54FF4F2591E5
:101130003591459154910E947313D595C795E394C9
:10114000ECCFFC01248125FF04C0808191810C94A7
:101150009C0590E080E008950F931F93CF93DF9359
:10116000EC0188819981009759F02A813B812617EB
:10117000370730F081E0DF91CF911F910F910895F3
:101180008B016F5F7F4F0E949816009759F09983EB
:1011900088831B830A832C813D81232B59F7FC0113
:1011A0001082E8CF80E0E7CFCF92DF92EF92FF92FC
:1011B0000F931F93CF93DF938C01DC019296ED91F7
:1011C000FC91E80FF91F12826C01B2E0CB0ED11C2A
:1011D000C114D10431F1F60101900020E9F73197F3
:1011E000EC19FD09F1F0DC01ED90FC90D7011496AB
:1011F000CD91DC91CE0FDF1FBE01C7010E94AC086C
:10120000882379F0F7012081318184819581B601AD
:10121000820F931F0E946717D7011596DC93CE9318
:101220001497F80113A212A2DF91CF911F910F9191
:10123000FF90EF90DF90CF900895CF93DF93EC0174
:101240008AA19BA19C012F5F3F4F3BA32AA3FE01D4
:10125000E80FF91F62830296809718F0CE010E9472
:10126000D4088CA19DA101969DA38CA3DF91CF9161
:101270000895EF92FF920F931F93CF93DF93EC01AA
:101280007B0162E20E941D098701F80161918F01D3
:10129000662391F0E6E3F1E0F280FF2049F0329618
:1012A00081816813F9CF6CE5CE010E941D096F2D75
:1012B000CE010E941D09E9CF62E2CE01DF91CF91FC
:1012C0001F910F91FF90EF900C941D09CF92DF9228
:1012D000EF92FF920F931F93CF93DF93EC016A017C
:1012E0008B017B01E40EF51E0E151F05A9F0F80118
:1012F00021918F018AA19BA1AC014F5F5F4F5BA33E
:101300004AA3FE01E80FF91F22830296809760F33B
:10131000CE010E94D408E8CF4CA15DA14C0D5D1D0B
:101320005DA34CA3DF91CF911F910F91FF90EF90A0
:10133000DF90CF9008958F929F92AF92BF92CF92FD
:10134000DF92EF92FF920F931F93CF93DF93CDB76E
:10135000DEB766970FB6F894DEBF0FBECDBF6C0147
:101360008E01095E1F4F78018AE0882E912CA12CF6
:10137000B12CCB01BA01A50194010E944B15942F09
:10138000852F605DF80162938F01A901692F782F85
:10139000411551056105710561F7A7014E1B5F0BF2
:1013A000BF01C6010E94660966960FB6F894DEBFBB
:1013B0000FBECDBFDF91CF911F910F91FF90EF90A6
:1013C000DF90CF90BF90AF909F908F900895FB01DA
:1013D00001900020E9F73197AF01461B570B0C94A1
:1013E00066092F923F924F925F926F927F928F92F7
:1013F0009F92AF92BF92CF92DF92EF92FF920F93A4
:101400001F93CF93DF93CDB7DEB76C970FB6F894E9
:10141000DEBF0FBECDBF8C011B01DC0114968C9189
:1014200014978F77863009F481C278F48230B0F057
:10143000843008F059C212964D915C9113976D91CA
:101440007C91C1010E94660906C28C30B1F160F442
:10145000883009F466C28A3009F44CC267E471E04E
:10146000C1010E94E709EEC1803209F410C2803444
:10147000A9F76BE5C1010E941D09F80100811181E6
:101480000115110509F4E3C1B101C8010E94F10978
:10149000D80115968C91882309F4D9C1B8E08B0244
:1014A000C0011124080F191F0115110509F4CFC13E
:1014B0006CE2C1010E941D09E3CFF801C080D18018
:1014C000E280F380A7019601C701B6010E940D13C7
:1014D0008111C4CF20E030E0A901C701B6010E940C
:1014E0000D13882379F0A7019601C701B6010E9468
:1014F00083149B01AC01C701B6010E940D13882320
:1015000009F4ACCF20E030E0A901C701B6010E9488
:101510000D1387FF08C06DE2C1010E941D09F7FA93
:10152000F094F7F8F09420E836E948E15BE4C7016D
:10153000B6010E941E1587FD81C074E1A72EB12C53
:1015400000E210E0188E1F8AF501E256FF4F259148
:10155000359145915491C701B6010E941E1587FD32
:1015600013C0F501EA54FF4F2591359145915491EF
:10157000C701B6010E9473136B017C012F89388D5E
:10158000200F311F388F2F8B1595079534E0A31A44
:10159000B1088CEFA8168FEFB806B1F655245A940F
:1015A00020E030E0A901C701B6010E941E151816FF
:1015B0000CF04BC02CEA35EC47E257E3C701B6010B
:1015C0000E940D1318160CF440C0A52DB4E0AB0218
:1015D000C0011124912C812CFC01E859FF4F3F01DF
:1015E0009C0122563F4F59013FEF531671F1F30111
:1015F000E80DF91D6591759185919491A70196016A
:101600000E941E1518169CF4F501E80DF91D259190
:10161000359145915491C701B6010E9473136B0136
:101620007C018F89988D801B910B988F8F8B1595DE
:1016300007955A9494E0891A9108D6CF00E210E0F9
:1016400055E0552E188E1F8AABCFC701B6010E94F8
:10165000EF144B015C012B013C0106E080E492E4B5
:10166000AFE0B0E0898F9A8FAB8FBC8F102F015005
:101670009AE04916510461047104C8F0698D7A8DAD
:101680008B8D9C8D2AE030E040E050E00E944B15AD
:10169000298F3A8F4B8F5C8FC301B2012AE030E073
:1016A00040E050E00E944B1529013A01DFCFC5010F
:1016B000B4010E9412139B01AC01C701B6010E9444
:1016C00082146B017C01698D7A8D8B8D9C8D0E94BB
:1016D00012139B01AC01C701B6010E9473132B01C9
:1016E0003C010E94EF146B017C010E9412139B01CC
:1016F000AC01C301B2010E9482149B01AC010E94A3
:1017000083140E94EF14C60ED71EE81EF91E898DA1
:101710009A8DAB8DBC8DC816D906EA06FB06D8F0AB
:101720009FEF891A990AA90AB90AAF89B88DAB2B1C
:1017300039F1BAE08B169104A104B10408F1EF89E4
:10174000F88D3196F88FEF8BC12CD12C7601812C3E
:10175000912C540183942AE0422E512C612C712C3F
:10176000C701B601A30192010E944B15672B682B9C
:10177000692B51F4111644F469017A011150F0CF2C
:10178000C12CD12C7601E7CFB501A401C1010E9483
:101790009B09112371F14E01F1E18F0E911C012F74
:1017A00054019AE0492E512C612C712C015068F0A3
:1017B000C701B601A30192010E944B15605DD401DF
:1017C0006E934D0169017A01F1CF812F90E0BC0148
:1017D00060957095F501E81BF90B31978EE28083D7
:1017E00044275527461B570B6A0D7B1DC1010E94DC
:1017F0006609EF89F88DEF2B29F165E6C1010E949A
:101800001D090F89188D17FF07C06DE2C1010E94E5
:101810001D09119501951109FE0177969F018AE036
:10182000E82EF12CC801B7010E942315805D829338
:101830008B01672BB9F7A9014E1B5F0BBF01C101DB
:101840000E946609D10194968D919C9107C06DE527
:10185000C1010E941D09F10184A195A16C960FB6EA
:10186000F894DEBF0FBECDBFDF91CF911F910F91D6
:10187000FF90EF90DF90CF90BF90AF909F908F90B0
:101880007F906F905F904F903F902F9008956BE7FF
:10189000C1010E941D09D8010D911C91011511056E
:1018A00009F1F80166817781C1010E9439096AE373
:1018B000C1010E941D09B101C8010E94F109D801AE
:1018C00015968C91882371F0B8E08B02C001112429
:1018D000080F191F0115110529F06CE2C1010E94C2
:1018E0001D09DCCF6DE7B4CF6D917C91C1010E94E1
:1018F0003909B1CFCD90DD90ED90FC90B701A601F4
:10190000F7FE0BC06DE2C1010E941D094427552757
:10191000BA014C195D096E097F09C1010E949B093A
:101920009ACF4D915D916D917C91F7CF8C916CE444
:1019300071E0811102C061E571E0C1010E94E70917
:101940008ACFEF92FF920F931F93CF93DF93EC0117
:101950007B018A01BA010E94AC082881398181117A
:1019600014C02115310519F0C9010E940F16198202
:1019700018821D821C821B821A82CE01DF91CF91B8
:101980001F910F91FF90EF9008951D830C83B70175
:10199000C9010E946717F1CFFC01118210821382E6
:1019A00012821582148250E040E066E471E00C94EB
:1019B000A10C0F931F93CF93DF93CDB7DEB7C85B16
:1019C000D1090FB6F894DEBF0FBECDBF8C019B01CD
:1019D000009711F1FC0194819F7794509230E0F4CC
:1019E0006081718161157105B9F0FB0101900020E2
:1019F000E9F73197AF01461B570BC9010E94A10CB3
:101A0000C854DF4F0FB6F894DEBF0FBECDBFDF91D5
:101A1000CF911F910F910895CB56DF4F39832883C3
:101A2000C559D040C954DF4F19821882C75BD040D6
:101A300084E2FE01EB56FF4FDE01AF58BF4F01902D
:101A40000D928A95E1F784E2FE01EF58FF4FDE0127
:101A5000A35BBF4F01900D928A95E1F784E2FE01EE
:101A6000E35BFF4FDE01999601900D928A95E1F7B5
:101A700084E2FE01B996DE01119601900D928A95DD
:101A8000E1F71EA21DA2CE0189960E94D408CE01C4
:101A9000835B9F4F0E94D40801151105A9F0BE0178
:101AA0006F5F7F4FC8010E94F109CE0101960E942D
:101AB000D408CE018F589F4F0E94D408CE018B5678
:101AC0009F4F0E94D4089CCF67E471E0CE0101963D
:101AD0000E94E709EACFBF92CF92DF92EF92FF9286
:101AE0000F931F93CF93DF93CDB7DEB7CD57D4407D
:101AF0000FB6F894DEBF0FBECDBFCE010F969A830E
:101B000089839C838B838FE094E08C0F9D1F9E8341
:101B10008D8398878F8319868E8580788E874091F4
:101B2000F6025091F7028091FA029091FB02840F25
:101B3000951F9E012F5F3F4FC659DB4F3983288386
:101B4000CA56D44068E0FE01E659FB4FDE01AE59AB
:101B5000BB4F01900D926A95E1F768E0FE01EE59E6
:101B6000FB4FDE01A15FBB4F01900D926A95E1F73B
:101B7000C95EDB4F1882C751D440C85EDB4F598322
:101B80004883C851D440C65EDB4F99838883CA51CD
:101B9000D440C35EDB4F1882CD51D440C25EDB4FD0
:101BA00039832883CE51D440C05ADB4F1982188222
:101BB000C056D4404AE0BE01665F7F4FCE01815FD0
:101BC0009B4F0E94C605C05ADB4F08811981C05641
:101BD000D4400115110569F4C45EDB4F8881CC51F6
:101BE000D440882309F492C08E8583FF8FC003E020
:101BF00010E087E591E00E946D05000F111FF801CC
:101C0000EA5FFE4F808191810E946D05109235023E
:101C1000C358DB4F0FB6F894DEBF0FBECDBFDF91C8
:101C2000CF911F910F91FF90EF90DF90CF90BF90D9
:101C30000895F801E657FF4FE491E33009F44AC0F4
:101C400068F4E130F9F0E23009F43FC060E080E888
:101C5000C816D1040CF061E08B2D0DC1E73009F4FA
:101C600045C0E83009F44AC0E43081F78091800033
:101C70008062809380008F2D9E2D90938B008093A7
:101C80008A0004C084B5806884BDF7BC6BE971E04C
:101C9000CE01815F9B4F0E948705882321F06F2D25
:101CA000802F0E94C00110923502CE0188589B4FB0
:101CB0000E947F05CE018E589B4F0E947F05CE016A
:101CC000815F9B4F0E947F05A3CF84B5806284BD56
:101CD000F8BCDCCF809180008068809380008F2DDD
:101CE0009E2D9093890080938800D0CF8091B00082
:101CF00080688093B000F092B300C8CF8091B000AC
:101D000080628093B000F092B400C0CF63EA71E0CB
:101D1000CE010A960E94A1088C01CE01815F9B4FE3
:101D20000E94CC0CBE01615F7B4FC8010E94D90CA0
:101D300068EA71E0CE010A960E94A1088C01CE01EA
:101D40008E589B4F0E94CC0CBE016E587B4FC80131
:101D50000E94D90C6CEA71E0CE010A960E94A1089B
:101D60008C01CE0188589B4F0E94CC0CBE01685854
:101D70007B4FC8010E94D90CC858DB4F88819981DC
:101D8000C857D440F12CE12C009721F00E94D112C9
:101D9000F62EE72E6CE771E0CE018E589B4F0E9425
:101DA000870503E010E0882311F005E010E06FE7FD
:101DB00071E0CE018E589B4F0E948705882311F059
:101DC00006E010E062E871E0CE018E589B4F0E9461
:101DD0008705882311F009E010E065E871E0CE0185
:101DE0008E589B4F0E948705882311F00EE010E06B
:101DF00068E871E0CE018E589B4F0E9487058823CA
:101E000011F00FE010E06BE871E0CE018E589B4FAF
:101E10000E948705882311F000E110E06EE871E070
:101E2000CE018E589B4F0E948705882311F001E157
:101E300010E064E670E080E090E00E94620261E9F8
:101E400071E0CE01815F9B4F0E948705882309F4D2
:101E50001DCFCF2CDE2CB02E61E0802F0E940C0213
:101E600060E0C114D10431F09FEFC916D10409F02C
:101E7000E0CE61E0802F0E94C00108CF1F920F9238
:101E80000FB60F9211242F933F934F935F936F934D
:101E90007F938F939F93AF93BF93EF93FF938AE3C7
:101EA00092E00E943101FF91EF91BF91AF919F911C
:101EB0008F917F916F915F914F913F912F910F90F3
:101EC0000FBE0F901F9018951F920F920FB60F9292
:101ED00011242F938F939F93EF93FF93E0914A02E6
:101EE000F0914B028081E0915002F091510282FD0D
:101EF0001BC09081809153028F5F8F732091540299
:101F0000821741F0E0915302F0E0E65CFD4F958FBF
:101F100080935302FF91EF919F918F912F910F909A
:101F20000FBE0F901F9018958081F4CF1F920F92D3
:101F30000FB60F9211242F933F938F939F93AF93DC
:101F4000BF938091360290913702A0913802B091F0
:101F5000390230912C0223E0230F2D3758F50196DA
:101F6000A11DB11D20932C0280933602909337025D
:101F7000A0933802B093390280912D0290912E02E5
:101F8000A0912F02B09130020196A11DB11D809346
:101F90002D0290932E02A0932F02B0933002BF9196
:101FA000AF919F918F913F912F910F900FBE0F9006
:101FB0001F90189526E8230F0296A11DB11DD2CFC0
:101FC0001F920F920FB60F9211242F933F934F93AE
:101FD0005F936F937F938F939F93AF93BF93EF9391
:101FE000FF93E0913302F0913402309749F0A685D7
:101FF000B7858585968D91FF14C09C918923A1F4A6
:10200000FF91EF91BF91AF919F918F917F916F91D0
:102010005F914F913F912F910F900FBE0F901F90A6
:1020200018959C91892361F7A389B4899C9185892E
:10203000809589238C93868997890197F1F7608D24
:10204000718DA685B785558538E020E0CB010197D5
:10205000F1F7822F90E095958795282F4C91452395
:1020600009F02068315091F7868D81FD209580918F
:10207000320290E001968F73992730913102381720
:1020800099F0A0913202B0E0A451BE4F2C938093FE
:102090003202828D938D0197F1F7A389B4898C91D7
:1020A0009589892B8C93ACCF868D8160868FF1CFFB
:1020B000CF92DF92EF92FF9210923D0210923C027B
:1020C00098EEC92E93E0D92EE12CF12CC0923E025D
:1020D000D0923F02E0924002F092410286E191E00C
:1020E00090933B0280933A0285EC90E090934702F4
:1020F0008093460284EC90E09093490280934802DA
:1021000080EC90E090934B0280934A0281EC90E047
:1021100090934D0280934C0282EC90E090934F029A
:1021200080934E0286EC90E090935102809350028F
:1021300010925302109254021092550210925602BD
:1021400086EF92E00E94CC0C1092DA021092D90233
:10215000C092DB02D092DC02E092DD02F092DE025D
:1021600088E291E09093D8028093D7021092EE0219
:102170001092ED021092F0021092EF021092F20211
:102180001092F1021092F4021092F3026091F502A3
:102190006E7F6D7F6093F5026695617081E06827C0
:1021A00084E00E94C00161E084E00E940C02EAEF3A
:1021B000F0E0E491E093E702E6EEF0E0E491F0E095
:1021C000EE0FFF1FE852FF4F859194919093E90223
:1021D0008093E80260E082E00E940C028091F502A8
:1021E00081FD04C061E082E00E94C00182E0809332
:1021F000E302E8EFF0E0E491E093E402E4EEF0E0E3
:10220000E491F0E0EE0FFF1FE253FF4F85919491B0
:102210009093E6028093E502FF90EF90DF90CF90DD
:102220000895CF93DF93CDB7DEB728970FB6F89414
:10223000DEBF0FBECDBF789484B5826084BD84B507
:10224000816084BD85B5826085BD85B5816085BDB1
:1022500080916E00816080936E0010928100809169
:1022600081008260809381008091810081608093F1
:102270008100809180008160809380008091B10016
:1022800084608093B1008091B00081608093B00041
:1022900080917A00846080937A0080917A008260D5
:1022A00080937A0080917A00816080937A00809197
:1022B0007A00806880937A001092C100E0914A020F
:1022C000F0914B0282E08083E0914602F091470258
:1022D0001082E0914802F09149028FEC80831092C5
:1022E0005202E0914E02F0914F0286E08083E0912D
:1022F0004C02F0914D02808180618083E0914C021C
:10230000F0914D02808188608083E0914C02F091D1
:102310004D02808180688083E0914C02F0914D02F3
:1023200080818F7D80831092F2021092F1021092D0
:10233000F0021092EF021092EE021092ED028DE97F
:1023400091E09093F4028093F3029091E30296312E
:1023500008F047C02DEB30E03093EE022093ED0201
:102360002BE931E03093F0022093EF022CE231E0D0
:102370003093F2022093F1022091680084E09830BB
:1023800048F031E09E3008F430E081E001C0880F71
:102390003A95EAF7822B809368002DE630E098307A
:1023A00050F02BE630E09E3030F02CE630E09631F5
:1023B00010F030E020E03093EB022093EA02292F66
:1023C00030E0983008F072C081E001C0880F9A9523
:1023D000EAF78093EC028091F3029091F402019766
:1023E000F1F78091F1029091F202892B49F1E0918D
:1023F0003302F091340282E0E73DF80709F13097AB
:1024000039F0A389B4899C918589809589238C931F
:102410008091F5028E7F8093F50210923202109225
:10242000310287ED92E09093340280933302E09181
:10243000EA02F091EB0280819091EC02892B80837B
:1024400080E0E82E80E0F82EDD24D3946AE070E08E
:1024500080E090E00E94620287ED92E00E94090312
:10246000892B09F46EC0CE0101960E94CC0C0E940B
:10247000420397FD28C08F8318860D811E810F5F50
:102480001F4FB801CE0101960E94AC08882379F352
:1024900029813A818D819E81BE01695F7F4F820FC4
:1024A000931F0E9467171E830D83E1CF9E3040F477
:1024B0002850310981E001C0880F2A95EAF789CFB9
:1024C0002E503109F7CF8091F6029091F7020097D4
:1024D00009F169817A8161157105D1F04091F802A5
:1024E0005091F9022D813E814217530788F00E94D6
:1024F00067178D819E819093FB028093FA021E8262
:102500001D82CE0101960E947F05D0923502A4CF94
:102510000E940F1689819A819093F7028093F602A8
:102520008B819C819093F9028093F8028D819E812A
:102530009093FB028093FA021A8219821C821B82FA
:10254000DECF8091350281110E946B0DE114F10400
:1025500009F47CCF0E941D01882309F477CF0E94E3
:10256000000074CF88E291E09093D8028093D70264
:102570008091330290913402875D924071F4E09132
:10258000EA02F091EB0290818091EC028095892320
:102590008083109234021092330286EF92E00C9402
:1025A0007F051F93FC0199278827BC01E8941191AE
:1025B0001032E9F3193010F01E30C8F31B3251F01D
:1025C0001D3249F4689406C00E94F812610F711D13
:1025D000811D911D119110531A30B0F33EF4909566
:1025E0008095709561957F4F8F4F9F4F1F910895F4
:1025F000592F482F372F262F660F771F881F991FB7
:10260000660F771F881F991F620F731F841F951F06
:10261000660F771F881F991F08950E944F1308F4B3
:1026200081E00895E89409C097FB3EF49095809569
:10263000709561957F4F8F4F9F4F9923A9F0F92F88
:1026400096E9BB279395F695879577956795B79506
:10265000F111F8CFFAF4BB0F11F460FF1BC06F5FEC
:102660007F4F8F4F9F4F16C0882311F096E911C0FE
:10267000772321F09EE8872F762F05C0662371F01F
:1026800096E8862F70E060E02AF09A95660F771F33
:10269000881FDAF7880F9695879597F90895990F0F
:1026A0000008550FAA0BE0E8FEEF16161706E8071C
:1026B000F907C0F012161306E407F50798F0621B3D
:1026C000730B840B950B39F40A2661F0232B242B12
:1026D000252B21F408950A2609F4A140A6958FEF31
:1026E000811D811D08950E9486130C94F7130E948A
:1026F000E91338F00E94F01320F0952311F00C94A8
:10270000E0130C94E61311240C942B140E9408146B
:1027100070F3959FC1F3950F50E0551F629FF00134
:10272000729FBB27F00DB11D639FAA27F00DB11D4D
:10273000AA1F649F6627B00DA11D661F829F2227D6
:10274000B00DA11D621F739FB00DA11D621F839F5D
:10275000A00D611D221F749F3327A00D611D231F33
:10276000849F600D211D822F762F6A2F11249F5781
:1027700050409AF0F1F088234AF0EE0FFF1FBB1F84
:10278000661F771F881F91505040A9F79E3F510543
:1027900080F00C94E0130C942B145F3FE4F3983E0C
:1027A000D4F3869577956795B795F795E7959F5FED
:1027B000C1F7FE2B880F911D9695879597F908957F
:1027C00097F99F6780E870E060E008959FEF80ECE4
:1027D000089500240A941616170618060906089587
:1027E00000240A9412161306140605060895092EED
:1027F0000394000C11F4882352F0BB0F40F4BF2B5C
:1028000011F460FF04C06F5F7F4F8F4F9F4F08959B
:1028100057FD9058440F551F59F05F3F71F0479591
:10282000880F97FB991F61F09F3F79F08795089576
:10283000121613061406551FF2CF4695F1DF08C095
:10284000161617061806991FF1CF869571056105B2
:1028500008940895E894BB2766277727CB0197F95A
:1028600008950E947314A59F900DB49F900DA49F8E
:10287000800D911D112408952F923F924F925F92E7
:102880006F927F928F929F92AF92BF92CF92DF9280
:10289000EF92FF920F931F93CF93DF93CDB7DEB7E5
:1028A000CA1BDB0B0FB6F894DEBF0FBECDBF099479
:1028B0002A88398848885F846E847D848C849B84D0
:1028C000AA84B984C884DF80EE80FD800C811B81DE
:1028D000AA81B981CE0FD11D0FB6F894DEBF0FBE0D
:1028E000CDBFED010895A29FB001B39FC001A39F8A
:1028F000700D811D1124911DB29F700D811D112439
:10290000911D08955058BB27AA270E949A140C9431
:10291000F7130E94E91338F00E94F01320F039F405
:102920009F3F19F426F40C94E6130EF4E095E7FBB0
:102930000C94E013E92F0E94081458F3BA176207A9
:1029400073078407950720F079F4A6F50C942A14F0
:102950000EF4E0950B2EBA2FA02D0B01B9019001BA
:102960000C01CA01A0011124FF27591B99F0593FFE
:1029700050F4503E68F11A16F040A22F232F342F46
:102980004427585FF3CF469537952795A795F04094
:102990005395C9F77EF41F16BA0B620B730B840BA9
:1029A000BAF09150A1F0FF0FBB1F661F771F881F61
:1029B000C2F70EC0BA0F621F731F841F48F48795B9
:1029C00077956795B795F7959E3F08F0B0CF9395AB
:1029D000880F08F09927EE0F9795879508950E9424
:1029E000101488F09F5798F0B92F9927B751B0F07D
:1029F000E1F0660F771F881F991F1AF0BA95C9F783
:102A000014C0B13091F00E942A14B1E008950C94E2
:102A10002A14672F782F8827B85F39F0B93FCCF395
:102A2000869577956795B395D9F73EF490958095FF
:102A3000709561957F4F8F4F9F4F08950E944F1360
:102A400008F48FEF0895AA1BBB1B51E107C0AA1F12
:102A5000BB1FA617B70710F0A61BB70B881F991F3F
:102A60005A95A9F780959095BC01CD01089597FBE3
:102A7000072E16F4009407D077FD09D00E94231585
:102A800007FC05D03EF4909581959F4F0895709571
:102A900061957F4F0895A1E21A2EAA1BBB1BFD0171
:102AA0000DC0AA1FBB1FEE1FFF1FA217B307E4072D
:102AB000F50720F0A21BB30BE40BF50B661F771F85
:102AC000881F991F1A9469F7609570958095909565
:102AD0009B01AC01BD01CF010895EE0FFF1F0590D2
:102AE000F491E02D09940F931F93CF93DF938230DD
:102AF000910510F482E090E0E091FE02F091FF0277
:102B000030E020E0B0E0A0E0309799F421153105E5
:102B100009F44AC0281B390B24303105D8F58A81C5
:102B20009B816115710589F1FB0193838283FE010D
:102B300011C0408151810281138148175907E0F08B
:102B40004817590799F4109761F012960C93129751
:102B500013961C933296CF01DF91CF911F910F9165
:102B600008950093FE021093FF02F4CF2115310562
:102B700051F04217530738F0A901DB019A01BD015A
:102B8000DF01F801C1CFEF01F9CF9093FF028093ED
:102B9000FE02CDCFFE01E20FF31F819391932250ED
:102BA000310939832883D7CF2091FC023091FD026F
:102BB000232B41F420910201309103013093FD0257
:102BC0002093FC0220910001309101012115310573
:102BD00041F42DB73EB74091040150910501241BEB
:102BE000350BE091FC02F091FD02E217F307A0F42F
:102BF0002E1B3F0B2817390778F0AC014E5F5F4F53
:102C00002417350748F04E0F5F1F5093FD02409385
:102C1000FC02819391939FCFF0E0E0E09CCFCF93B3
:102C2000DF930097E9F0FC01329713821282A091A2
:102C3000FE02B091FF02ED0130E020E01097A1F418
:102C400020813181820F931F2091FC023091FD027F
:102C50002817390709F061C0F093FD02E093FC02E8
:102C6000DF91CF910895EA01CE17DF07E8F54A8199
:102C70005B819E0141155105B1F7E901FB83EA83B0
:102C800049915991C40FD51FEC17FD0761F480815C
:102C900091810296840F951FE9019983888382812F
:102CA00093819B838A83F0E0E0E012968D919C9162
:102CB00013970097B9F52D913C911197CD0102968C
:102CC000820F931F2091FC023091FD0228173907D3
:102CD00039F6309751F51092FF021092FE02B09330
:102CE000FD02A093FC02BCCFD383C28340815181FB
:102CF000840F951FC817D90761F44E5F5F4F888115
:102D00009981480F591F518340838A819B81938306
:102D100082832115310509F0B0CFF093FF02E093D3
:102D2000FE029ECFFD01DC01C0CF13821282D7CFFD
:102D3000B0E0A0E0EEE9F6E10C943E148C010097BF
:102D400051F4CB010E9473158C01C801CDB7DEB7D9
:102D5000E0E10C945A14FC01E60FF71F9C0122508D
:102D60003109E217F30708F49DC0D901CD91DC9138
:102D70001197C617D70798F0C530D10530F3CE01AB
:102D800004978617970708F3C61BD70B2297C193A2
:102D9000D1936D937C93CF010E940F16D6CF5B0128
:102DA000AC1ABD0A4C018C0E9D1EA091FE02B09182
:102DB000FF02512C412CF12CE12C109731F5809120
:102DC000FC029091FD028815990509F05CC0461639
:102DD000570608F058C080910001909101010097BA
:102DE00041F48DB79EB74091040150910501841BB9
:102DF000950BE817F90708F055C0F093FD02E09332
:102E0000FC02F90171836083A0CF8D919C91119791
:102E100012966C90129713967C901397A815B9058B
:102E200059F56C0142E0C40ED11CCA14DB0420F138
:102E3000AC014A195B09DA011296159780F062829B
:102E4000738251834083D9016D937C93E114F10423
:102E500071F0D7011396FC93EE93129776CF2296DA
:102E60008C0F9D1FF90191838083F301EFCFF093C5
:102E7000FF02E093FE0269CF4816590608F42C01C0
:102E80007D01D3019ACFCB010E9473157C0100977D
:102E900049F0AE01B8010E945517C8010E940F16F3
:102EA000870153CF10E000E050CFFB01DC0102C0EE
:102EB00001900D9241505040D8F70895FB01DC017C
:102EC0008D91019080190110D9F3990B0895FB01A0
:102ED000DC0101900D920020E1F7089510E0C6E8B2
:102EE000D0E004C0FE010E946D152196C738D107BD
:102EF000C9F7F894FFCF000000038000B001B301D0
:102F0000BE01CE01DB01E401000000005301B3006B
:102F1000E000A0011101EF00030100000000AD027C
:102F2000B3008203AC020903210394022F2F222253
:102F30005C5C6208660C6E0A720D7409006E756C3A
:102F40006C00747275650066616C73650045727221
:102F50006F7220656E206C612064657365726961B3
:102F60006C697A6163696F6E2E204552524F523AF6
:102F700020004131004132004133004430004431EF
:102F800000443200443300616E616C6F6769636FA7
:102F9000006469676974616C006D6F646F007069CB
:102FA0006E0076616C004F6B00456D707479496EF0
:102FB00070757400496E636F6D706C657465496EF1
:102FC00070757400496E76616C6964496E707574D1
:102FD000004E6F4D656D6F727900546F6F4465657B
:022FE00070007F
:107E0000112484B714BE81FFF0D085E080938100F7
:107E100082E08093C00088E18093C10086E0809377
:107E2000C20080E18093C4008EE0C9D0259A86E02C
:107E300020E33CEF91E0309385002093840096BBD3
:107E4000B09BFECF1D9AA8958150A9F7CC24DD24C4
:107E500088248394B5E0AB2EA1E19A2EF3E0BF2EE7
:107E6000A2D0813461F49FD0082FAFD0023811F036
:107E7000013811F484E001C083E08DD089C08234E0
:107E800011F484E103C0853419F485E0A6D080C0E4
:107E9000853579F488D0E82EFF2485D0082F10E0AE
:107EA000102F00270E291F29000F111F8ED06801E7
:107EB0006FC0863521F484E090D080E0DECF843638
:107EC00009F040C070D06FD0082F6DD080E0C81688
:107ED00080E7D80618F4F601B7BEE895C0E0D1E017
:107EE00062D089930C17E1F7F0E0CF16F0E7DF06D8
:107EF00018F0F601B7BEE89568D007B600FCFDCFD4
:107F0000A601A0E0B1E02C9130E011968C91119780
:107F100090E0982F8827822B932B1296FA010C0160
:107F200087BEE89511244E5F5F4FF1E0A038BF0790
:107F300051F7F601A7BEE89507B600FCFDCF97BE46
:107F4000E89526C08437B1F42ED02DD0F82E2BD052
:107F50003CD0F601EF2C8F010F5F1F4F84911BD097
:107F6000EA94F801C1F70894C11CD11CFA94CF0C13
:107F7000D11C0EC0853739F428D08EE10CD085E9AC
:107F80000AD08FE07ACF813511F488E018D01DD067
:107F900080E101D065CF982F8091C00085FFFCCF94
:107FA0009093C60008958091C00087FFFCCF809118
:107FB000C00084FD01C0A8958091C6000895E0E648
:107FC000F0E098E1908380830895EDDF803219F02E
:107FD00088E0F5DFFFCF84E1DECF1F93182FE3DFCA
:107FE0001150E9F7F2DF1F91089580E0E8DFEE27F6
:047FF000FF270994CA
:027FFE00040479
:00000001FF
